:020000040800F2
:100000002004002001010008B104000821040008B8
:10001000AD0400084901000839090008000000008B
:100020000000000000000000000000005906000869
:100030004D010008000000006105000845070008A8
:100040001B0100081B0100081B0100081B01000820
:100050001B0100081B0100081B0100081B01000810
:100060001B0100081B0100081B0100081B01000800
:100070001B0100081B0100081B0100081B010008F0
:100080001B0100081B0100081B0100081B010008E0
:100090001B0100081B0100081B010008510100089A
:1000A0001B0100081B0100081B0100081B010008C0
:1000B0001B0100081B0100081B0100081B010008B0
:1000C0001B0100081B0100081B0100081B010008A0
:1000D0001B0100081B0100081B0100081B01000890
:1000E0001B0100081B0100081B010008DFF80CD0F1
:1000F00000F018F800480047CD090008200400204F
:100100000648804706480047FEE7FEE7FEE7FEE7B1
:10011000FEE7FEE7FEE7FEE7FEE7FEE74907000829
:10012000ED000008064C074D06E0E06840F00103D2
:1001300094E8070098471034AC42F6D3FFF7DAFF93
:10014000480C0008680C000800BFFEE7704700007C
:1001500010B5202000F024F838B10D480068643054
:100160000B490860202000F015F8402000F018F836
:1001700068B10748006864380549086008460068A7
:10018000002801DC0A200860402000F003F810BDC0
:10019000000000200149086070470000140401407D
:1001A000014600200022074B1B6803EA0102054BB1
:1001B00014331B680B4013B10AB1012000E000208A
:1001C0007047000000040140002123498279002A81
:1001D0003AD00A46126803689A430B461A600A1D11
:1001E000126803689A430B1D1A60027911440A6869
:1001F00003681A430A60184A0832126803689A436F
:10020000154B08331A601A1D126803689A43124B83
:100210000C331A604279102A0ED11A1F1268036833
:100220001A430D4B08331A601A1D126803681A43EB
:10023000094B0C331A600DE00749427911440A68F2
:1002400003681A430A6005E0027911440A680368EA
:100250009A430A6070470000000401400EB5012176
:10026000092000F07FF900F024F948208DF80B00F8
:100270006020ADF8080002A90C4800F039F805210B
:10028000012000F015F80621012000F011F860208F
:10029000009000208DF804000C208DF8050001204E
:1002A0008DF806006846FFF78FFF0EBD000C014079
:1002B00030B500228B071C0F0F2303FA04F20B4BFF
:1002C0008C1053F824309343084C8D1044F825309B
:1002D00023468C1053F824308C07240F00FA04F4C2
:1002E0002343024C8D1044F8253030BD08000140F6
:1002F0002DE9F041024600250026002000230024BD
:10030000002791F803C00CF00F0591F803C00CF022
:10031000100CBCF1000F03D091F802C04CEA0505A7
:1003200091F800C0BCF1000F31D0146800202BE020
:100330004FF0010C0CFA00F3B1F800C00CEA030610
:100340009E4220D183004FF00F0C0CFA03F7BC4300
:1003500005FA03FC4CEA040491F803C0BCF1280F31
:1003600006D14FF0010C0CFA00FCC2F814C00AE0F0
:1003700091F803C0BCF1480F05D14FF0010C0CFA05
:1003800000FCC2F810C0401C0828D1D31460B1F89A
:1003900000C0BCF1FF0F34DD546800202EE000F1F6
:1003A000080C4FF0010808FA0CF3B1F800C00CEA91
:1003B00003069E4221D183004FF00F0C0CFA03F785
:1003C000BC4305FA03FC4CEA040491F803C0BCF1F9
:1003D000280F05D100F1080C08FA0CF8C2F81480B7
:1003E00091F803C0BCF1480F07D100F1080C4FF0A1
:1003F000010808FA0CF8C2F81080401C0828CED377
:100400005460BDE8F0810246002093680B400BB1B8
:10041000012000E000207047416170470161704792
:1004200000BFFEE708B50121082000F09BF8482036
:100430008DF80300DF20ADF8000069460148FFF7A2
:1004400057FF08BD000C014070B504460D46294613
:100450002046FFF7D8FF58B90A2000F097FA00BFEE
:1004600029462046FFF7CFFF0028F9D0012070BDB4
:100470000020FCE708B50121082000F073F84FF4D4
:100480007F40ADF8000014208DF8030003208DF8A4
:10049000020069460448FFF72BFFBDF80010024830
:1004A000FFF7BCFF08BD0000000C014000BFFEE7E5
:1004B000704708B54FF4C06000F048F817208DF879
:1004C000000000208DF802008DF8010001208DF859
:1004D0000300684600F002F808BD000070B5002176
:1004E00000230F22C47804B3154C246804F4E0649C
:1004F000C4F5E064210AC1F10403CA40447804FA57
:1005000003F184781440214309010E4C0678A1556B
:10051000047804F01F050124AC4005786D11AD008E
:1005200005F1E025C5F8004109E0047804F01F0555
:100530000124AC40044D0678761145F8264070BD84
:100540000CED00E000E400E080E100E0024901433E
:10055000024A1160704700000000FA050CED00E04F
:100560007047000029B1064A92690243044B9A6120
:1005700004E0034A92698243014B9A61704700008C
:100580000010024030B500210022002400232D4D30
:100590006D6805F00C0121B1042905D0082923D18B
:1005A00005E0294D056022E0274D05601FE0254D3F
:1005B0006D6805F47012234D6D6805F480340225D2
:1005C00005EB92421CB9214D554305600BE01D4DD2
:1005D0006D6805F400351DB11C4D5543056002E002
:1005E000194D5543056002E0174D056000BF00BF7F
:1005F000144D6D6805F0F0010909154D6B5C056837
:10060000DD4045600F4D6D6805F4E061090A104D4D
:100610006B5C4568DD4085600A4D6D6805F460518E
:10062000C90A0B4D6B5C4568DD40C560054D6D68C2
:1006300005F44041890B074D6B5CC568B5FBF3F5CC
:10064000056130BD0010024000127A0000093D0033
:100650000400002014000020704710B500F002F8DC
:1006600010BD00000CB500200190009033480068D8
:1006700040F480303149086000BF3048006800F421
:10068000003000900198401C0190009818B9019822
:10069000B0F5A06FF1D12948006800F4003010B126
:1006A0000120009001E0002000900098012843D133
:1006B0002348006840F0100021490860084600689F
:1006C00020F0030008600846006840F0020008605F
:1006D0001A4840681949486008464068486008461A
:1006E000406840F4806048600846406820F47C1010
:1006F00048600846406840F4E810486008460068D2
:1007000040F08070086000BF0C48006800F0007086
:100710000028F9D00948406820F0030007494860E4
:100720000846406840F00200486000BF0348406847
:1007300000F00C000828F9D10CBD000000100240A8
:10074000002002407047000010B51348006840F0D8
:1007500001001149086008464068104908400E49E8
:100760004860084600680E4908400B490860084682
:10077000006820F4802008600846406820F4FE00ED
:1007800048604FF41F008860FFF767FF4FF000607C
:100790000449086010BD0000001002400000FFF88E
:1007A000FFFFF6FE08ED00E000B585B0012144F240
:1007B0000400FFF7D7FE4FF40070ADF810001820CA
:1007C0008DF8130003208DF8120004A91348FFF7D9
:1007D0008FFD4FF48060ADF8100004208DF81300F9
:1007E00004A90E48FFF784FD4FF4E130009000208B
:1007F000ADF80400ADF80600ADF80800ADF80C0047
:100800000C20ADF80A006946054800F025F80121E2
:10081000034800F007F805B000BD000000080140E3
:100820000038014021B1828942F40052828104E003
:1008300082894DF6FF731A4082817047024600207C
:10084000B1F5007F00D100BF13880B400BB1012030
:1008500000E00020704700002DE9F04786B0054613
:100860000E460024A24600BFA1460027B08900B171
:1008700000BF2F462C8A4CF6FF700440F0880443DA
:100880002C82AC894EF6F3100440B08831890843BD
:10089000718908430443AC81AC8A4FF6FF400440A1
:1008A000B0890443AC8201A8FFF76CFE1F48874261
:1008B00002D1DDF810A001E0DDF80CA0A88900F459
:1008C000004040B10AEBCA0000EB0A103168490051
:1008D000B0FBF1F807E00AEBCA0000EB0A10316840
:1008E0008900B0FBF1F86420B8FBF0F004012009A6
:1008F000642101FB1089A88900F4004040B1322036
:1009000000EBC900B0FBF1F000F00700044308E081
:10091000322000EB09106421B0FBF1F000F00F0071
:1009200004432C8106B0BDE8F08700000038014088
:10093000C1F308028280704700BFFEE7014A024906
:1009400000F013B8A90900081800002002E008C848
:10095000121F08C1002AFAD170477047002001E039
:1009600001C1121F002AFBD170472DE9F041164644
:100970000F460446002503E03946B047641C6D1C51
:1009800020780028F8D12846BDE8F081014605E02E
:10099000002000E0401CB0F57A7FFBDB0A1EA1F1CD
:1009A0000101F5D17047000070B504460D46E1B273
:1009B0000548FFF7BDFF00BF40210348FFF73EFF9A
:1009C0000128F9D1204670BD003801400B24FFF703
:1009D00051FDFFF727FDFFF741FCFFF7E5FE012082
:1009E000FFF7D4FF1CE101218E48FFF72DFD002801
:1009F00078D08DA0FFF7A2FF84E004F0800028B13A
:100A0000A4F18000012101EB400400E0640004F047
:100A1000010028B14FF480718248FFF7FDFC04E02B
:100A20004FF480717F48FFF7F9FC04F0020028B111
:100A30004FF400717B48FFF7EFFC04E04FF40071C6
:100A40007848FFF7EBFC04F0040028B14FF4806114
:100A50007448FFF7E1FC04E04FF480617148FFF750
:100A6000DDFC04F0080028B14FF400616D48FFF789
:100A7000D3FC04E04FF400616A48FFF7CFFC04F0B8
:100A8000100028B14FF480516648FFF7C5FC04E020
:100A90004FF480516348FFF7C1FC04F0200028B1F7
:100AA0004FF400515F48FFF7B7FC04E04FF40051EA
:100AB0005C48FFF7B3FC04F0400028B14FF400415C
:100AC0005848FFF7A9FC04E04FF400415548FFF7F0
:100AD000A5FC04F0800030B14FF480415148FFF78D
:100AE0009BFC05E010E04FF480414E48FFF796FC78
:100AF00054480068FFF74AFF80214A48FFF7A4FCEA
:100B000000B100E079E700BF02214648FFF79CFCF6
:100B1000002873D082E004F0010018B1802000EBBF
:100B2000540400E0640804F0010028B14FF480711F
:100B30003C48FFF771FC04E04FF480713948FFF73F
:100B40006DFC04F0020028B14FF400713548FFF746
:100B500063FC04E04FF400713248FFF75FFC04F0DF
:100B6000040028B14FF480612E48FFF755FC04E0E3
:100B70004FF480612B48FFF751FC04F0080028B1C6
:100B80004FF400612748FFF747FC04E04FF4006191
:100B90002448FFF743FC04F0100028B14FF48051C3
:100BA0002048FFF739FC04E04FF480511D48FFF75F
:100BB00035FC04F0200028B14FF400511948FFF72C
:100BC0002BFC04E04FF400511648FFF727FC04F01B
:100BD000400028B14FF400411248FFF71DFC04E02B
:100BE0004FF400410F48FFF719FC04F0800030B1CA
:100BF0004FF480410B48FFF70FFC05E010E04FF485
:100C000080410848FFF70AFC0E480068FFF7BEFE67
:100C100080210448FFF718FC00B100E07BE700BF2B
:100C2000E1E60000000C01400D0A207468697320A1
:100C300069732061207072696E74662064656D6FDF
:100C4000200D0A0000000020680C000800000020B1
:100C50001C0000004C090008840C00081C00002047
:100C6000040400005C090008F4010000000000001A
:100C7000010203040102030406070809020406082E
:040C80000000000070
:04000005080000ED02
:00000001FF
