:020000040800F2
:10000000A81700200101000805060008590500088E
:100010000106000849010008E10A0008000000008C
:10002000000000000000000000000000F1070008D0
:100030008702000800000000D9060008DD0800085B
:100040001B0100081B0100081B0100081B01000820
:100050001B0100081B0100081B0100081B01000810
:100060001B0100081B0100081B0100081B01000800
:100070001B0100081B0100084D0100081B010008BE
:100080001B0100081B0100081B0100081B010008E0
:100090001B0100081B0100081B0100088902000861
:1000A0001B0100081B0100081B0100081B010008C0
:1000B0001B0100081B0100081B0100081B010008B0
:1000C0001B0100081B0100081B0100081B010008A0
:1000D0001B0100081B0100081B0100081B01000890
:1000E0001B0100081B0100081B010008DFF80CD0F1
:1000F00000F018F800480047750B0008A81700200A
:100100000648804706480047FEE7FEE7FEE7FEE7B1
:10011000FEE7FEE7FEE7FEE7FEE7FEE7E108000890
:10012000ED000008064C074D06E0E06840F00103D2
:1001300094E8070098471034AC42F6D3FFF7DAFF93
:10014000180E0008380E000800BFFEE710B54FF487
:10015000005000F05BF838B10121044800F0F8F9D4
:100160004FF4005000F004F810BD000000080140FA
:1001700000F0805111B10349086001E00249486074
:1001800070470000040402400000024021B10268F0
:1001900042F00102026004E002684FF6FE731A406A
:1001A0000260704700B58BB00121084600F096FA56
:1001B00000F03DFA12480090124801901020029081
:1001C00041F28830079000200490802005900020A4
:1001D0000690079008904FF48050099000200A90F4
:1001E0006946094800F031F801210748FFF7CEFFC2
:1001F00001220221044800F01FF80BB000BD0000EE
:10020000043801401C000020440002400146002048
:10021000002201F0805313B1054B1A6801E0054B31
:100220001A6802EA01030BB1012000E000207047C8
:1002300000040240000002401AB103680B4303604F
:1002400002E003688B430360704710B50022026828
:1002500047F6F0739A430C6A8B6823430C69234377
:100260004C6923438C692343CC6923434C6A234361
:100270008C6A23431A430260CB6843600B68836037
:100280004B68C36010BD704710B5202000F024F803
:1002900038B10D48006864300B490860202000F038
:1002A00015F8402000F018F868B107480068643875
:1002B0000549086008460068002801DC0A2008603B
:1002C000402000F003F810BD000000200149086044
:1002D0007047000014040140014600200022074B33
:1002E0001B6803EA0102054B14331B680B4013B172
:1002F0000AB1012000E00020704700000004014026
:10030000002123498279002A3AD00A4612680368FC
:100310009A430B461A600A1D126803689A430B1D24
:100320001A60027911440A6803681A430A60184A7D
:100330000832126803689A43154B08331A601A1D75
:10034000126803689A43124B0C331A604279102AE0
:100350000ED11A1F126803681A430D4B08331A6036
:100360001A1D126803681A43094B0C331A600DE01A
:100370000749427911440A6803681A430A6005E094
:10038000027911440A6803689A430A6070470000C2
:10039000000401400EB50121092000F0AFF900F082
:1003A00032F948208DF80B006020ADF8080002A952
:1003B0000C4800F039F80521012000F015F806215D
:1003C000012000F011F86020009000208DF804005A
:1003D0000C208DF8050001208DF806006846FFF717
:1003E0008FFF0EBD000C014030B500228B071C0FA3
:1003F0000F2303FA04F20B4B8C1053F82430934371
:10040000084C8D1044F8253023468C1053F82430C6
:100410008C07240F00FA04F42343024C8D1044F897
:10042000253030BD080001402DE9F041024600258D
:100430000026002000230024002791F803C00CF0C0
:100440000F0591F803C00CF0100CBCF1000F03D0A5
:1004500091F802C04CEA050591F800C0BCF1000F0C
:1004600031D0146800202BE04FF0010C0CFA00F39F
:10047000B1F800C00CEA03069E4220D183004FF081
:100480000F0C0CFA03F7BC4305FA03FC4CEA040416
:1004900091F803C0BCF1280F06D14FF0010C0CFA03
:1004A00000FCC2F814C00AE091F803C0BCF1480F88
:1004B00005D14FF0010C0CFA00FCC2F810C0401C32
:1004C0000828D1D31460B1F800C0BCF1FF0F34DDAF
:1004D000546800202EE000F1080C4FF0010808FAE3
:1004E0000CF3B1F800C00CEA03069E4221D1830050
:1004F0004FF00F0C0CFA03F7BC4305FA03FC4CEA6F
:10050000040491F803C0BCF1280F05D100F1080CD8
:1005100008FA0CF8C2F8148091F803C0BCF1480F37
:1005200007D100F1080C4FF0010808FA0CF8C2F8E6
:100530001080401C0828CED35460BDE8F0810246EC
:10054000002093680B400BB1012000E000207047B1
:10055000416170470161704700BFFEE708B50121A6
:10056000082000F0CBF848208DF80300DF20ADF81C
:10057000000069460148FFF757FF08BD000C014025
:1005800070B504460D4629462046FFF7D8FF58B9F6
:100590000A2000F0CFFA00BF29462046FFF7CFFF20
:1005A0000028F9D0012070BD0020FCE708B501212A
:1005B0000C2000F0A3F84FF47F40ADF800001420A9
:1005C0008DF8030003208DF8020069460A48FFF702
:1005D0002BFFBDF800100848FFF7BCFF0120ADF865
:1005E000000069460548FFF71FFFBDF800100348EB
:1005F000FFF7B0FF08BD0000000C014000080140FB
:1006000000BFFEE7704708B54FF4C06000F05AF82D
:1006100017208DF8000000208DF802008DF80100F1
:1006200001208DF80300684600F014F808BD08B5F5
:100630004FF4C06000F046F80E208DF80000012055
:100640008DF801008DF802008DF80300684600F077
:1006500001F808BD70B5002100230F22C47804B34F
:10066000154C246804F4E064C4F5E064210AC1F187
:100670000403CA40447804FA03F184781440214307
:1006800009010E4C0678A155047804F01F050124D9
:10069000AC4005786D11AD0005F1E025C5F80041CD
:1006A00009E0047804F01F050124AC40044D0678ED
:1006B000761145F8264070BD0CED00E000E400E046
:1006C00080E100E002490143024A116070470000E6
:1006D0000000FA050CED00E07047000029B1064A61
:1006E00052690243044B5A6104E0034A526982434F
:1006F000014B5A61704700000010024029B1064AC0
:1007000092690243044B9A6104E0034A926982436E
:10071000014B9A61704700000010024030B5002183
:100720000022002400232D4D6D6805F00C0121B13D
:10073000042905D0082923D105E0294D056022E0D0
:10074000274D05601FE0254D6D6805F47012234D9F
:100750006D6805F48034022505EB92421CB9214DE9
:10076000554305600BE01D4D6D6805F400351DB166
:100770001C4D5543056002E0194D5543056002E0EC
:10078000174D056000BF00BF144D6D6805F0F00106
:100790000909154D6B5C0568DD4045600F4D6D68BE
:1007A00005F4E061090A104D6B5C4568DD40856029
:1007B0000A4D6D6805F46051C90A0B4D6B5C4568C4
:1007C000DD40C560054D6D6805F44041890B074D5E
:1007D0006B5CC568B5FBF3F5056130BD00100240E8
:1007E00000127A0000093D000400002014000020DF
:1007F000704710B500F002F810BD00000CB50020E5
:10080000019000903348006840F48030314908601E
:1008100000BF3048006800F4003000900198401C90
:100820000190009818B90198B0F5A06FF1D129484E
:10083000006800F4003010B10120009001E00020B9
:1008400000900098012843D12348006840F0100030
:10085000214908600846006820F003000860084647
:10086000006840F0020008601A4840681949486072
:100870000846406848600846406840F48060486028
:100880000846406820F47C1048600846406840F400
:10089000E81048600846006840F08070086000BFBB
:1008A0000C48006800F000700028F9D00948406842
:1008B00020F00300074948600846406840F0020005
:1008C000486000BF0348406800F00C000828F9D1D8
:1008D0000CBD0000001002400020024070470000E4
:1008E00010B51348006840F001001149086008463F
:1008F0004068104908400E494860084600680E49A3
:1009000008400B4908600846006820F48020086011
:100910000846406820F4FE0048604FF41F008860DD
:10092000FFF767FF4FF000600449086010BD00004A
:10093000001002400000FFF8FFFFF6FE08ED00E0A7
:1009400000B585B0012144F20400FFF7D7FE4FF453
:100950000070ADF8100018208DF8130003208DF8FA
:10096000120004A91348FFF75FFD4FF48060ADF853
:10097000100004208DF8130004A90E48FFF754FD61
:100980004FF4E13000900020ADF80400ADF806000F
:10099000ADF80800ADF80C000C20ADF80A0069466F
:1009A000054800F02DF80121034800F007F805B0D4
:1009B00000BD0000000801400038014021B18289DB
:1009C00042F40052828104E082894DF6FF731A409E
:1009D000828170471AB1838A0B43838202E0838A43
:1009E0008B438382704702460020B1F5007F00D11F
:1009F00000BF13880B400BB1012000E000207047BE
:100A00002DE9F04786B005460E460024A24600BFF9
:100A1000A1460027B08900B100BF2F462C8A4CF6B2
:100A2000FF700440F08804432C82AC894EF6F3102A
:100A30000440B08831890843718908430443AC817C
:100A4000AC8A4FF6FF400440B0890443AC8201A851
:100A5000FFF764FE1F48874202D1DDF810A001E0D5
:100A6000DDF80CA0A88900F4004040B10AEBCA00F0
:100A700000EB0A1031684900B0FBF1F807E00AEB1F
:100A8000CA0000EB0A1031688900B0FBF1F864205D
:100A9000B8FBF0F004012009642101FB1089A8894A
:100AA00000F4004040B1322000EBC900B0FBF1F08F
:100AB00000F00700044308E0322000EB0910642135
:100AC000B0FBF1F000F00F0004432C8106B0BDE84C
:100AD000F087000000380140C1F3080282807047AF
:100AE00000BFFEE7014A024900F013B8510B0008AD
:100AF0001800002002E008C8121F08C1002AFAD11D
:100B000070477047002001E001C1121F002AFBD18D
:100B100070472DE9F04116460F460446002503E0D4
:100B20003946B047641C6D1C20780028F8D128464F
:100B3000BDE8F081014605E0002000E0401CB0F572
:100B40007A7FFBDB0A1EA1F10101F5D1704700009D
:100B500070B504460D46E1B20548FFF7BDFF00BF82
:100B600040210348FFF73FFF0128F9D1204670BD1F
:100B7000003801400B24FFF719FDFFF7EFFCFFF7EA
:100B800009FCFFF7DDFEFFF70DFB0120FFF7D2FFA9
:100B9000002503E0FF20954948556D1C41F288303F
:100BA0008542F7D3012280219148FFF713FF1CE112
:100BB00001219048FFF7E4FC002878D08EA0FFF7D1
:100BC00091FF84E004F0800028B1A4F180000121AD
:100BD00001EB400400E0640004F0010028B14FF490
:100BE00080718448FFF7B4FC04E04FF480718148C1
:100BF000FFF7B0FC04F0020028B14FF400717D480B
:100C0000FFF7A6FC04E04FF400717A48FFF7A2FC5E
:100C100004F0040028B14FF480617648FFF798FC97
:100C200004E04FF480617348FFF794FC04F008007F
:100C300028B14FF400616F48FFF78AFC04E04FF4DD
:100C400000616C48FFF786FC04F0100028B14FF4F7
:100C500080516848FFF77CFC04E04FF48051654800
:100C6000FFF778FC04F0200028B14FF400516148F0
:100C7000FFF76EFC04E04FF400515E48FFF76AFC9A
:100C800004F0400028B14FF400415A48FFF760FCDF
:100C900004E04FF400415748FFF75CFC04F080008B
:100CA00030B14FF480415348FFF752FC05E010E0AB
:100CB0004FF480414F48FFF74DFC56480068FFF75E
:100CC00039FF80214B48FFF75BFC00B100E079E77A
:100CD00000BF02214748FFF753FC002873D082E091
:100CE00004F0010018B1802000EB540400E0640817
:100CF00004F0010028B14FF480713E48FFF728FC52
:100D000004E04FF480713B48FFF724FC04F002003C
:100D100028B14FF400713748FFF71AFC04E04FF494
:100D200000713448FFF716FC04F0040028B14FF4BA
:100D300080613048FFF70CFC04E04FF480612D48DF
:100D4000FFF708FC04F0080028B14FF400612948BF
:100D5000FFF7FEFB04E04FF400612648FFF7FAFBC3
:100D600004F0100028B14FF480512248FFF7F0FB47
:100D700004E04FF480511F48FFF7ECFB04F0200023
:100D800028B14FF400511B48FFF7E2FB04E04FF499
:100D900000511848FFF7DEFB04F0400028B14FF483
:100DA00000411448FFF7D4FB04E04FF40041114820
:100DB000FFF7D0FB04F0800030B14FF480410D48C4
:100DC000FFF7C6FB05E010E04FF480410948FFF74C
:100DD000C1FB10480068FFF7ADFE80210548FFF712
:100DE000CFFB00B100E07BE700BFE1E61C00002084
:100DF00000380140000C01400D0A2074686973201E
:100E000069732061207072696E74662064656D6F0D
:100E1000200D0A0000000020380E0008000000200D
:100E20001C000000F40A0008540E00081C000020FA
:100E30008C170000040B0008F40100000000000003
:100E4000010203040102030406070809020406085C
:040E5000000000009E
:04000005080000ED02
:00000001FF
