:020000040800F2
:10000000600600206D010008ED0300085D03000894
:10001000E90300082702000861050008000000004D
:1000200000000000000000000000000011040008B3
:100030002B02000800000000EF030008FD04000888
:100040008701000887010008870100088701000870
:100050008701000887010008870100088701000860
:100060008701000887010008870100088701000850
:100070008701000887010008870100088701000840
:100080008701000887010008870100088701000830
:100090008701000887010008870100088701000820
:1000A0008701000887010008870100088701000810
:1000B0008701000887010008870100088701000800
:1000C00087010008870100088701000887010008F0
:1000D00087010008870100088701000887010008E0
:1000E00087010008870100088701000800F002F876
:1000F00000F02CF80AA090E8000C82448344AAF196
:100100000107DA4501D100F021F8AFF2090EBAE893
:100110000F0013F0010F18BFFB1A43F0010318473B
:10012000E4060000F4060000002300240025002659
:10013000103A28BF78C1FBD8520728BF30C148BF4A
:100140000B6070471FB51FBD10B510BD00F031F832
:100150001146FFF7F7FF00F013FA00F04FF803B471
:10016000FFF7F2FF03BC00F057F800000948804792
:1001700009480047FEE7FEE7FEE7FEE7FEE7FEE789
:10018000FEE7FEE7FEE7FEE704480549054A064BA1
:100190007047000001050008ED0000086000002025
:1001A0006006002060020020600200207047704757
:1001B0007047754600F02CF8AE4605006946534678
:1001C00020F00700854618B020B5FFF7DDFFBDE839
:1001D00020404FF000064FF000074FF000084FF0AE
:1001E000000B21F00701AC46ACE8C009ACE8C0093F
:1001F000ACE8C009ACE8C0098D46704710B50446AC
:10020000AFF300802046BDE81040FFF7A8BF000014
:10021000004870470000002001491820ABBEFEE7EF
:1002200026000200704700BFFEE770472DE9F0414D
:10023000024600250026002000230024002791F814
:1002400003C00CF00F0591F803C00CF0100CBCF1CA
:10025000000F03D091F802C04CEA050591F800C0E8
:10026000BCF1000F31D0146800202BE04FF0010CDE
:100270000CFA00F3B1F800C00CEA03069E4220D14C
:1002800083004FF00F0C0CFA03F7BC4305FA03FC94
:100290004CEA040491F803C0BCF1280F06D14FF0DA
:1002A000010C0CFA00FCC2F814C00AE091F803C07B
:1002B000BCF1480F05D14FF0010C0CFA00FCC2F85C
:1002C00010C0401C0828D1D31460B1F800C0BCF1A4
:1002D000FF0F34DD546800202EE000F1080C4FF0D1
:1002E000010808FA0CF3B1F800C00CEA03069E42BC
:1002F00021D183004FF00F0C0CFA03F7BC4305FA31
:1003000003FC4CEA040491F803C0BCF1280F05D1AA
:1003100000F1080C08FA0CF8C2F8148091F803C038
:10032000BCF1480F07D100F1080C4FF0010808FAA2
:100330000CF8C2F81080401C0828CED35460BDE8E9
:10034000F0810246002093680B400BB1012000E0D1
:1003500000207047416170470161704700BFFEE7B0
:1003600008B50121082000F043F848208DF803006B
:10037000FF20ADF8000069460148FFF757FF08BDB0
:10038000000C014070B504460D4629462046FFF793
:10039000D8FF58B90A2000F0E5F800BF29462046EA
:1003A000FFF7CFFF0028F9D0012070BD0020FCE747
:1003B00008B50121082000F01BF84FF47F40ADF88C
:1003C000000014208DF8030003208DF80200694618
:1003D0000448FFF72BFFBDF800100248FFF7BAFFF3
:1003E00008BD0000000C014000BFFEE770477047E9
:1003F00029B1064A92690243044B9A6104E0034A18
:1004000092698243014B9A617047000000100240DC
:10041000704710B500F002F810BD00000CB50020C8
:10042000019000903348006840F480303149086002
:1004300000BF3048006800F4003000900198401C74
:100440000190009818B90198B0F5A06FF1D1294832
:10045000006800F4003010B10120009001E000209D
:1004600000900098012843D12348006840F0100014
:10047000214908600846006820F00300086008462B
:10048000006840F0020008601A4840681949486056
:100490000846406848600846406840F4806048600C
:1004A0000846406820F47C1048600846406840F4E4
:1004B000E81048600846006840F08070086000BF9F
:1004C0000C48006800F000700028F9D00948406826
:1004D00020F00300074948600846406840F00200E9
:1004E000486000BF0348406800F00C000828F9D1BC
:1004F0000CBD0000001002400020024070470000C8
:1005000010B51348006840F0010011490860084622
:100510004068104908400E494860084600680E4986
:1005200008400B4908600846006820F480200860F5
:100530000846406820F4FE0048604FF41F008860C1
:10054000FFF767FF4FF000600449086010BD00002E
:10055000001002400000FFF8FFFFF6FE08ED00E08B
:1005600000BFFEE7014605E0002000E0401CB0F5BA
:100570007A7FFBDB0A1EA1F10101F5D17047000073
:100580000B244FF4FA75FFF713FFFFF7E9FE35E18F
:1005900001219B48FFF7F6FE002875D092E004F099
:1005A000800028B1A4F18000012101EB400400E0AB
:1005B000640004F0010028B14FF480719048FFF707
:1005C000C9FE04E04FF480718D48FFF7C5FE04F0CA
:1005D000020028B14FF400718948FFF7BBFE04E028
:1005E0004FF400718648FFF7B7FE04F0040028B10D
:1005F0004FF480618248FFF7ADFE04E04FF4806164
:100600007F48FFF7A9FE04F0080028B14FF400610D
:100610007B48FFF79FFE04E04FF400617848FFF746
:100620009BFE04F0100028B14FF480517448FFF78E
:1006300091FE04E04FF480517148FFF78DFE04F005
:10064000200028B14FF400516D48FFF783FE04E00D
:100650004FF400516A48FFF77FFE04F0400028B1D4
:100660004FF400416648FFF775FE04E04FF4004187
:100670006348FFF771FE04F0800030B14FF4804111
:100680005F48FFF767FE05E01EE04FF480415C48DD
:10069000FFF762FE2846FFF765FF80215848FFF705
:1006A00071FE00B10FE020215548FFF76BFE00B14D
:1006B000643540215248FFF765FE18B1643D642D52
:1006C00000DA64256BE700BF02214D48FFF75AFEB0
:1006D000002873D090E004F0010018B1802000EBF6
:1006E000540400E0640804F0010028B14FF4807164
:1006F0004348FFF72FFE04E04FF480714048FFF7B6
:100700002BFE04F0020028B14FF400713C48FFF7C3
:1007100021FE04E04FF400713948FFF71DFE04F09C
:10072000040028B14FF480613548FFF713FE04E060
:100730004FF480613248FFF70FFE04F0080028B143
:100740004FF400612E48FFF705FE04E04FF400610E
:100750002B48FFF701FE04F0100028B14FF4805140
:100760002748FFF7F7FD04E04FF480512448FFF7D6
:10077000F3FD04F0200028B14FF400512048FFF7AA
:10078000E9FD04E04FF400511D48FFF7E5FD04F0DA
:10079000400028B14FF400411948FFF7DBFD04E0A9
:1007A0004FF400411648FFF7D7FD04F0800030B148
:1007B0004FF480411248FFF7CDFD05E01EE04FF4F5
:1007C00080410F48FFF7C8FD2846FFF7CBFE802188
:1007D0000B48FFF7D7FD00B10FE020210848FFF7D5
:1007E000D1FD00B1643540210548FFF7CBFD18B1BC
:1007F000643D642D00DA64256DE700BFC8E60000A3
:10080000000C0140140800080000002060060000F1
:0408100028010008B3
:04000005080000ED02
:00000001FF
