:020000040800F2
:1000000068060020890100087D050008ED0400084D
:100010007905000843020008A1070008000000005D
:100020000000000000000000000000005106000871
:1000300047020008000000002D0600083D070008E8
:10004000A3010008A3010008A3010008A301000800
:10005000A3010008A3010008A3010008A3010008F0
:10006000A3010008A3010008A3010008A3010008E0
:10007000A3010008A3010008A3010008A3010008D0
:10008000A3010008A3010008A3010008A3010008C0
:10009000A3010008A3010008A30100084902000809
:1000A000A3010008A3010008A3010008A3010008A0
:1000B000A3010008A3010008A3010008A301000890
:1000C000A3010008A3010008A3010008A301000880
:1000D000A3010008A3010008A3010008A301000870
:1000E000A3010008A3010008A301000800F002F822
:1000F00000F03AF80AA090E8000C82448344AAF188
:100100000107DA4501D100F02FF8AFF2090EBAE885
:100110000F0013F0010F18BFFB1A43F0010318473B
:100120003009000050090000103A24BF78C878C197
:10013000FAD8520724BF30C830C144BF04680C60ED
:10014000704700000023002400250026103A28BF35
:1001500078C1FBD8520728BF30C148BF0B60704739
:100160001FB51FBD10B510BD00F031F81146FFF7E7
:10017000F7FF00F025FB00F04FF803B4FFF7F2FFA4
:1001800003BC00F057F800000948804709480047C1
:10019000FEE7FEE7FEE7FEE7FEE7FEE7FEE7FEE737
:1001A000FEE7FEE704480549054A064B7047000094
:1001B00041070008ED0000086800002068060020E4
:1001C000680200206802002070477047704775463B
:1001D00000F02CF8AE4605006946534620F00700B3
:1001E000854618B020B5FFF7DDFFBDE820404FF091
:1001F00000064FF000074FF000084FF0000B21F011
:100200000701AC46ACE8C009ACE8C009ACE8C009DD
:10021000ACE8C0098D46704710B50446AFF30080C6
:100220002046BDE81040FFF7A8BF00000048704717
:100230000400002001491820ABBEFEE726000200A2
:10024000704700BFFEE7704710B5202000F012F89D
:1002500038B104480068643002490860202000F08A
:1002600003F810BD0000002001490860704700003D
:1002700014040140014600200022074B1B6803EADA
:100280000102054B14331B680B4013B10AB1012066
:1002900000E00020704700000004014000212349D5
:1002A0008279002A3AD00A46126803689A430B46BC
:1002B0001A600A1D126803689A430B1D1A600279BE
:1002C00011440A6803681A430A60184A083212681F
:1002D00003689A43154B08331A601A1D12680368A5
:1002E0009A43124B0C331A604279102A0ED11A1F0E
:1002F000126803681A430D4B08331A601A1D1268FE
:1003000003681A43094B0C331A600DE00749427920
:1003100011440A6803681A430A6005E0027911442F
:100320000A6803689A430A607047000000040140AD
:100330000EB50121092000F07BF900F020F94820DA
:100340008DF80B002020ADF8080002A90A4800F043
:1003500035F80521012000F011F820200090002040
:100360008DF804000C208DF8050001208DF80600A2
:100370006846FFF793FF0EBD000C014030B5002228
:100380008B071C0F0F2303FA04F20B4B8C1053F84E
:1003900024309343084C8D1044F8253023468C10AC
:1003A00053F824308C07240F00FA04F42343024C42
:1003B0008D1044F8253030BD080001402DE9F04192
:1003C000024600250026002000230024002791F883
:1003D00003C00CF00F0591F803C00CF0100CBCF139
:1003E000000F03D091F802C04CEA050591F800C057
:1003F000BCF1000F31D0146800202BE04FF0010C4D
:100400000CFA00F3B1F800C00CEA03069E4220D1BA
:1004100083004FF00F0C0CFA03F7BC4305FA03FC02
:100420004CEA040491F803C0BCF1280F06D14FF048
:10043000010C0CFA00FCC2F814C00AE091F803C0E9
:10044000BCF1480F05D14FF0010C0CFA00FCC2F8CA
:1004500010C0401C0828D1D31460B1F800C0BCF112
:10046000FF0F34DD546800202EE000F1080C4FF03F
:10047000010808FA0CF3B1F800C00CEA03069E422A
:1004800021D183004FF00F0C0CFA03F7BC4305FA9F
:1004900003FC4CEA040491F803C0BCF1280F05D119
:1004A00000F1080C08FA0CF8C2F8148091F803C0A7
:1004B000BCF1480F07D100F1080C4FF0010808FA11
:1004C0000CF8C2F81080401C0828CED35460BDE858
:1004D000F0810246002093680B400BB1012000E040
:1004E00000207047416170470161704700BFFEE71F
:1004F00008B50121082000F09BF848208DF8030082
:10050000DF20ADF8000069460148FFF757FF08BD3E
:10051000000C014070B504460D4629462046FFF701
:10052000D8FF58B90A2000F03DF900BF29462046FF
:10053000FFF7CFFF0028F9D0012070BD0020FCE7B5
:1005400008B50121082000F073F84FF47F40ADF8A2
:10055000000014208DF8030003208DF80200694686
:100560000448FFF72BFFBDF800100248FFF7BCFF5F
:1005700008BD0000000C014000BFFEE7704708B551
:100580004FF4C06000F048F817208DF800000020FC
:100590008DF802008DF8010001208DF803006846F7
:1005A00000F002F808BD000070B5002100230F2202
:1005B000C47804B3154C246804F4E064C4F5E06422
:1005C000210AC1F10403CA40447804FA03F1847893
:1005D0001440214309010E4C0678A155047804F01B
:1005E0001F050124AC4005786D11AD0005F1E02533
:1005F000C5F8004109E0047804F01F050124AC406F
:10060000044D0678761145F8264070BD0CED00E0EB
:1006100000E400E080E100E002490143024A116089
:10062000704700000000FA050CED00E07047000084
:1006300029B1064A92690243044B9A6104E0034AD5
:1006400092698243014B9A6170470000001002409A
:10065000704710B500F002F810BD00000CB5002086
:10066000019000903348006840F4803031490860C0
:1006700000BF3048006800F4003000900198401C32
:100680000190009818B90198B0F5A06FF1D12948F0
:10069000006800F4003010B10120009001E000205B
:1006A00000900098012843D12348006840F01000D2
:1006B000214908600846006820F0030008600846E9
:1006C000006840F0020008601A4840681949486014
:1006D0000846406848600846406840F480604860CA
:1006E0000846406820F47C1048600846406840F4A2
:1006F000E81048600846006840F08070086000BF5D
:100700000C48006800F000700028F9D009484068E3
:1007100020F00300074948600846406840F00200A6
:10072000486000BF0348406800F00C000828F9D179
:100730000CBD000000100240002002407047000085
:1007400010B51348006840F00100114908600846E0
:100750004068104908400E494860084600680E4944
:1007600008400B4908600846006820F480200860B3
:100770000846406820F4FE0048604FF41F0088607F
:10078000FFF767FF4FF000600449086010BD0000EC
:10079000001002400000FFF8FFFFF6FE08ED00E049
:1007A00000BFFEE7014605E0002000E0401CB0F578
:1007B0007A7FFBDB0A1EA1F10101F5D17047000031
:1007C0000B24FFF7BDFEFFF793FEFFF7B1FD39E104
:1007D00001219D48FFF79EFE002875D094E004F0AB
:1007E000800028B1A4F18000012101EB400400E069
:1007F000640004F0010028B14FF480719248FFF7C3
:1008000071FE04E04FF480718F48FFF76DFE04F035
:10081000020028B14FF400718B48FFF763FE04E03B
:100820004FF400718848FFF75FFE04F0040028B120
:100830004FF480618448FFF755FE04E04FF4806177
:100840008148FFF751FE04F0080028B14FF4006121
:100850007D48FFF747FE04E04FF400617A48FFF758
:1008600043FE04F0100028B14FF480517648FFF7A2
:1008700039FE04E04FF480517348FFF735FE04F071
:10088000200028B14FF400516F48FFF72BFE04E021
:100890004FF400516C48FFF727FE04F0400028B1E8
:1008A0004FF400416848FFF71DFE04E04FF400419B
:1008B0006548FFF719FE04F0800030B14FF4804125
:1008C0006148FFF70FFE05E020E04FF480415E48ED
:1008D000FFF70AFE5D480068FFF764FF80215A4871
:1008E000FFF718FE00B110E040215748FFF712FE55
:1008F00050B156480068643854490860084600689A
:10090000642801DA6420086069E700BF02214E48CC
:10091000FFF700FE002873D092E004F0010018B148
:10092000802000EB540400E0640804F0010028B1CA
:100930004FF480714448FFF7D5FD04E04FF4807117
:100940004148FFF7D1FD04F0020028B14FF40071D7
:100950003D48FFF7C7FD04E04FF400713A48FFF748
:10096000C3FD04F0040028B14FF480613648FFF75E
:10097000B9FD04E04FF480613348FFF7B5FD04F0A2
:10098000080028B14FF400612F48FFF7ABFD04E0E9
:100990004FF400612C48FFF7A7FD04F0100028B1C8
:1009A0004FF480512848FFF79DFD04E04FF480513B
:1009B0002548FFF799FD04F0200028B14FF40051BD
:1009C0002148FFF78FFD04E04FF400511E48FFF768
:1009D0008BFD04F0400028B14FF400411A48FFF7A6
:1009E00081FD04E04FF400411748FFF77DFD04F05E
:1009F000800030B14FF480411348FFF773FD05E0EC
:100A000020E04FF480411048FFF76EFD0F4800686A
:100A1000FFF7C8FE80210C48FFF77CFD00B110E015
:100A200040210948FFF776FD50B108480068643856
:100A30000649086008460068642801DA64200860F6
:100A40006BE700BFC4E60000000C0140000000207E
:100A5000700A0008000000200400000028010008BF
:100A6000740A000804000020640600004401000825
:040A7000F40100008D
:04000005080000ED02
:00000001FF
